{
  "_format": "hh-sol-artifact-1",
  "contractName": "Mine2Mine",
  "sourceName": "contracts/Mine2Mine.sol",
  "abi": [
    {
      "anonymous": false,
      "inputs": [
        {
          "indexed": false,
          "internalType": "uint256",
          "name": "taskId",
          "type": "uint256"
        },
        {
          "indexed": false,
          "internalType": "uint256",
          "name": "submissionId",
          "type": "uint256"
        },
        {
          "indexed": false,
          "internalType": "address",
          "name": "creator",
          "type": "address"
        },
        {
          "indexed": false,
          "internalType": "string",
          "name": "ipfsHash",
          "type": "string"
        }
      ],
      "name": "SubmissionCreated",
      "type": "event"
    },
    {
      "anonymous": false,
      "inputs": [
        {
          "indexed": false,
          "internalType": "uint256",
          "name": "taskId",
          "type": "uint256"
        },
        {
          "indexed": false,
          "internalType": "address",
          "name": "creator",
          "type": "address"
        },
        {
          "indexed": false,
          "internalType": "string",
          "name": "text",
          "type": "string"
        },
        {
          "indexed": false,
          "internalType": "uint256",
          "name": "bid",
          "type": "uint256"
        },
        {
          "indexed": false,
          "internalType": "uint256",
          "name": "expiresAt",
          "type": "uint256"
        },
        {
          "indexed": false,
          "internalType": "uint256",
          "name": "quantity",
          "type": "uint256"
        }
      ],
      "name": "TaskCreated",
      "type": "event"
    },
    {
      "inputs": [
        {
          "internalType": "uint256",
          "name": "taskId",
          "type": "uint256"
        },
        {
          "internalType": "string",
          "name": "ipfsHash",
          "type": "string"
        }
      ],
      "name": "createSubmission",
      "outputs": [
        {
          "internalType": "uint256",
          "name": "",
          "type": "uint256"
        }
      ],
      "stateMutability": "nonpayable",
      "type": "function"
    },
    {
      "inputs": [
        {
          "internalType": "string",
          "name": "text",
          "type": "string"
        },
        {
          "internalType": "uint256",
          "name": "bid",
          "type": "uint256"
        },
        {
          "internalType": "uint256",
          "name": "expiresAt",
          "type": "uint256"
        },
        {
          "internalType": "uint256",
          "name": "quantity",
          "type": "uint256"
        }
      ],
      "name": "createTask",
      "outputs": [
        {
          "internalType": "uint256",
          "name": "",
          "type": "uint256"
        }
      ],
      "stateMutability": "nonpayable",
      "type": "function"
    }
  ],
  "bytecode": "0x6080604052732791bca1f2de4661ed88a30c99a7a9449aa84174600260006101000a81548173ffffffffffffffffffffffffffffffffffffffff021916908373ffffffffffffffffffffffffffffffffffffffff16021790555034801561006557600080fd5b506107fc806100756000396000f3fe608060405234801561001057600080fd5b50600436106100365760003560e01c8063a5e99c4e1461003b578063fabbe4dd1461006b575b600080fd5b61005560048036038101906100509190610444565b61009b565b60405161006291906104b3565b60405180910390f35b610085600480360381019061008091906104ce565b6101d3565b60405161009291906104b3565b60405180910390f35b6000806001600086815260200190815260200160002060050154116100bf57600080fd5b600060016000868152602001908152602001600020905060018160060160008282546100eb9190610585565b9250508190555060008160060154905060008260070160008381526020019081526020016000209050338160000160006101000a81548173ffffffffffffffffffffffffffffffffffffffff021916908373ffffffffffffffffffffffffffffffffffffffff160217905550858582600101919061016a9291906102fc565b50600183600501600082825461018091906105db565b925050819055507f9d9ec53e54f6385ec09428208c029bd27eb96263fc7b5da62db98ecc7d3f015c87833389896040516101be9594939291906106ae565b60405180910390a18193505050509392505050565b60008084116101e157600080fd5b4283116101ed57600080fd5b600082116101fa57600080fd5b600160008082825461020c9190610585565b925050819055506000805490506000600160008381526020019081526020016000209050338160000160006101000a81548173ffffffffffffffffffffffffffffffffffffffff021916908373ffffffffffffffffffffffffffffffffffffffff16021790555087878260010191906102869291906102fc565b508581600201819055508481600301819055508381600401819055508381600501819055507f8623ed2339baafec131f38526e1e8c85a4e636b9698a20b0c87705450c92739082338a8a8a8a8a6040516102e697969594939291906106fc565b60405180910390a1819250505095945050505050565b82805461030890610795565b90600052602060002090601f01602090048101928261032a5760008555610371565b82601f1061034357803560ff1916838001178555610371565b82800160010185558215610371579182015b82811115610370578235825591602001919060010190610355565b5b50905061037e9190610382565b5090565b5b8082111561039b576000816000905550600101610383565b5090565b600080fd5b600080fd5b6000819050919050565b6103bc816103a9565b81146103c757600080fd5b50565b6000813590506103d9816103b3565b92915050565b600080fd5b600080fd5b600080fd5b60008083601f840112610404576104036103df565b5b8235905067ffffffffffffffff811115610421576104206103e4565b5b60208301915083600182028301111561043d5761043c6103e9565b5b9250929050565b60008060006040848603121561045d5761045c61039f565b5b600061046b868287016103ca565b935050602084013567ffffffffffffffff81111561048c5761048b6103a4565b5b610498868287016103ee565b92509250509250925092565b6104ad816103a9565b82525050565b60006020820190506104c860008301846104a4565b92915050565b6000806000806000608086880312156104ea576104e961039f565b5b600086013567ffffffffffffffff811115610508576105076103a4565b5b610514888289016103ee565b95509550506020610527888289016103ca565b9350506040610538888289016103ca565b9250506060610549888289016103ca565b9150509295509295909350565b7f4e487b7100000000000000000000000000000000000000000000000000000000600052601160045260246000fd5b6000610590826103a9565b915061059b836103a9565b9250827fffffffffffffffffffffffffffffffffffffffffffffffffffffffffffffffff038211156105d0576105cf610556565b5b828201905092915050565b60006105e6826103a9565b91506105f1836103a9565b92508282101561060457610603610556565b5b828203905092915050565b600073ffffffffffffffffffffffffffffffffffffffff82169050919050565b600061063a8261060f565b9050919050565b61064a8161062f565b82525050565b600082825260208201905092915050565b82818337600083830152505050565b6000601f19601f8301169050919050565b600061068d8385610650565b935061069a838584610661565b6106a383610670565b840190509392505050565b60006080820190506106c360008301886104a4565b6106d060208301876104a4565b6106dd6040830186610641565b81810360608301526106f0818486610681565b90509695505050505050565b600060c082019050610711600083018a6104a4565b61071e6020830189610641565b8181036040830152610731818789610681565b905061074060608301866104a4565b61074d60808301856104a4565b61075a60a08301846104a4565b98975050505050505050565b7f4e487b7100000000000000000000000000000000000000000000000000000000600052602260045260246000fd5b600060028204905060018216806107ad57607f821691505b6020821081036107c0576107bf610766565b5b5091905056fea26469706673582212200a5867b4d5af5a69fa74fe64708bcd3a63d2c10dc64dc7345f6b737a5ee8e00164736f6c634300080d0033",
  "linkReferences": {},
  "deployedLinkReferences": {}
}