{
  "_format": "hh-sol-artifact-1",
  "contractName": "Mine2Mine",
  "sourceName": "contracts/Mine2Mine.sol",
  "abi": [
    {
      "anonymous": false,
      "inputs": [
        {
          "indexed": false,
          "internalType": "uint256",
          "name": "taskId",
          "type": "uint256"
        },
        {
          "indexed": false,
          "internalType": "uint256",
          "name": "submissionId",
          "type": "uint256"
        },
        {
          "indexed": false,
          "internalType": "address",
          "name": "creator",
          "type": "address"
        },
        {
          "indexed": false,
          "internalType": "string",
          "name": "ipfsHash",
          "type": "string"
        },
        {
          "indexed": false,
          "internalType": "bool",
          "name": "verified",
          "type": "bool"
        }
      ],
      "name": "SubmissionCreated",
      "type": "event"
    },
    {
      "anonymous": false,
      "inputs": [
        {
          "indexed": false,
          "internalType": "uint256",
          "name": "taskId",
          "type": "uint256"
        },
        {
          "indexed": false,
          "internalType": "uint256",
          "name": "submissionId",
          "type": "uint256"
        },
        {
          "indexed": false,
          "internalType": "address",
          "name": "creator",
          "type": "address"
        },
        {
          "indexed": false,
          "internalType": "string",
          "name": "ipfsHash",
          "type": "string"
        },
        {
          "indexed": false,
          "internalType": "bool",
          "name": "verified",
          "type": "bool"
        }
      ],
      "name": "SubmissionVerified",
      "type": "event"
    },
    {
      "anonymous": false,
      "inputs": [
        {
          "indexed": false,
          "internalType": "uint256",
          "name": "taskId",
          "type": "uint256"
        },
        {
          "indexed": false,
          "internalType": "address",
          "name": "creator",
          "type": "address"
        },
        {
          "indexed": false,
          "internalType": "string",
          "name": "text",
          "type": "string"
        },
        {
          "indexed": false,
          "internalType": "uint256",
          "name": "bid",
          "type": "uint256"
        },
        {
          "indexed": false,
          "internalType": "uint256",
          "name": "expiresAt",
          "type": "uint256"
        },
        {
          "indexed": false,
          "internalType": "uint256",
          "name": "quantity",
          "type": "uint256"
        }
      ],
      "name": "TaskCreated",
      "type": "event"
    },
    {
      "inputs": [
        {
          "internalType": "uint256",
          "name": "taskId",
          "type": "uint256"
        },
        {
          "internalType": "string",
          "name": "ipfsHash",
          "type": "string"
        }
      ],
      "name": "createSubmission",
      "outputs": [
        {
          "internalType": "uint256",
          "name": "",
          "type": "uint256"
        }
      ],
      "stateMutability": "nonpayable",
      "type": "function"
    },
    {
      "inputs": [
        {
          "internalType": "string",
          "name": "text",
          "type": "string"
        },
        {
          "internalType": "uint256",
          "name": "bid",
          "type": "uint256"
        },
        {
          "internalType": "uint256",
          "name": "expiresAt",
          "type": "uint256"
        },
        {
          "internalType": "uint256",
          "name": "quantity",
          "type": "uint256"
        }
      ],
      "name": "createTask",
      "outputs": [
        {
          "internalType": "uint256",
          "name": "",
          "type": "uint256"
        }
      ],
      "stateMutability": "nonpayable",
      "type": "function"
    },
    {
      "inputs": [
        {
          "internalType": "uint256",
          "name": "taskId",
          "type": "uint256"
        },
        {
          "internalType": "uint256",
          "name": "submissionId",
          "type": "uint256"
        }
      ],
      "name": "verifySubmission",
      "outputs": [],
      "stateMutability": "nonpayable",
      "type": "function"
    }
  ],
  "bytecode": "0x6080604052732791bca1f2de4661ed88a30c99a7a9449aa84174600260006101000a81548173ffffffffffffffffffffffffffffffffffffffff021916908373ffffffffffffffffffffffffffffffffffffffff16021790555073f3bd0dd9c19978b54f09f97f4a1b8ee28eddb1b4600360006101000a81548173ffffffffffffffffffffffffffffffffffffffff021916908373ffffffffffffffffffffffffffffffffffffffff1602179055503480156100ba57600080fd5b50610c6e806100ca6000396000f3fe608060405234801561001057600080fd5b50600436106100415760003560e01c8063a5e99c4e14610046578063f29765bd14610076578063fabbe4dd14610092575b600080fd5b610060600480360381019061005b91906106ce565b6100c2565b60405161006d919061073d565b60405180910390f35b610090600480360381019061008b9190610758565b6101fd565b005b6100ac60048036038101906100a79190610798565b61045d565b6040516100b9919061073d565b60405180910390f35b6000806001600086815260200190815260200160002060050154116100e657600080fd5b60006001600086815260200190815260200160002090506001816006016000828254610112919061084f565b9250508190555060008160060154905060008260070160008381526020019081526020016000209050338160000160006101000a81548173ffffffffffffffffffffffffffffffffffffffff021916908373ffffffffffffffffffffffffffffffffffffffff1602179055508585826001019190610191929190610586565b5060018360050160008282546101a791906108a5565b925050819055507f441537efbe736f874b2c4742741d17a6fba33728e0d425bfd89d138cf3c1937c878333898960006040516101e896959493929190610993565b60405180910390a18193505050509392505050565b600360009054906101000a900473ffffffffffffffffffffffffffffffffffffffff1673ffffffffffffffffffffffffffffffffffffffff163373ffffffffffffffffffffffffffffffffffffffff161461025757600080fd5b600060016000848152602001908152602001600020905060008160070160008481526020019081526020016000209050600073ffffffffffffffffffffffffffffffffffffffff168160000160009054906101000a900473ffffffffffffffffffffffffffffffffffffffff1673ffffffffffffffffffffffffffffffffffffffff16116102e457600080fd5b60018160020160006101000a81548160ff021916908315150217905550600260009054906101000a900473ffffffffffffffffffffffffffffffffffffffff1673ffffffffffffffffffffffffffffffffffffffff166323b872dd8360000160009054906101000a900473ffffffffffffffffffffffffffffffffffffffff168360000160009054906101000a900473ffffffffffffffffffffffffffffffffffffffff1685600201546040518463ffffffff1660e01b81526004016103ac939291906109ef565b6020604051808303816000875af11580156103cb573d6000803e3d6000fd5b505050506040513d601f19601f820116820180604052508101906103ef9190610a52565b507fed08ba3e25daa93b26bd090afa43521ba97047bd3ca24b4eb86f1ba25294819d84848360000160009054906101000a900473ffffffffffffffffffffffffffffffffffffffff1684600101600160405161044f959493929190610b74565b60405180910390a150505050565b600080841161046b57600080fd5b42831161047757600080fd5b6000821161048457600080fd5b6001600080828254610496919061084f565b925050819055506000805490506000600160008381526020019081526020016000209050338160000160006101000a81548173ffffffffffffffffffffffffffffffffffffffff021916908373ffffffffffffffffffffffffffffffffffffffff1602179055508787826001019190610510929190610586565b508581600201819055508481600301819055508381600401819055508381600501819055507f8623ed2339baafec131f38526e1e8c85a4e636b9698a20b0c87705450c92739082338a8a8a8a8a6040516105709796959493929190610bce565b60405180910390a1819250505095945050505050565b82805461059290610aae565b90600052602060002090601f0160209004810192826105b457600085556105fb565b82601f106105cd57803560ff19168380011785556105fb565b828001600101855582156105fb579182015b828111156105fa5782358255916020019190600101906105df565b5b509050610608919061060c565b5090565b5b8082111561062557600081600090555060010161060d565b5090565b600080fd5b600080fd5b6000819050919050565b61064681610633565b811461065157600080fd5b50565b6000813590506106638161063d565b92915050565b600080fd5b600080fd5b600080fd5b60008083601f84011261068e5761068d610669565b5b8235905067ffffffffffffffff8111156106ab576106aa61066e565b5b6020830191508360018202830111156106c7576106c6610673565b5b9250929050565b6000806000604084860312156106e7576106e6610629565b5b60006106f586828701610654565b935050602084013567ffffffffffffffff8111156107165761071561062e565b5b61072286828701610678565b92509250509250925092565b61073781610633565b82525050565b6000602082019050610752600083018461072e565b92915050565b6000806040838503121561076f5761076e610629565b5b600061077d85828601610654565b925050602061078e85828601610654565b9150509250929050565b6000806000806000608086880312156107b4576107b3610629565b5b600086013567ffffffffffffffff8111156107d2576107d161062e565b5b6107de88828901610678565b955095505060206107f188828901610654565b935050604061080288828901610654565b925050606061081388828901610654565b9150509295509295909350565b7f4e487b7100000000000000000000000000000000000000000000000000000000600052601160045260246000fd5b600061085a82610633565b915061086583610633565b9250827fffffffffffffffffffffffffffffffffffffffffffffffffffffffffffffffff0382111561089a57610899610820565b5b828201905092915050565b60006108b082610633565b91506108bb83610633565b9250828210156108ce576108cd610820565b5b828203905092915050565b600073ffffffffffffffffffffffffffffffffffffffff82169050919050565b6000610904826108d9565b9050919050565b610914816108f9565b82525050565b600082825260208201905092915050565b82818337600083830152505050565b6000601f19601f8301169050919050565b6000610957838561091a565b935061096483858461092b565b61096d8361093a565b840190509392505050565b60008115159050919050565b61098d81610978565b82525050565b600060a0820190506109a8600083018961072e565b6109b5602083018861072e565b6109c2604083018761090b565b81810360608301526109d581858761094b565b90506109e46080830184610984565b979650505050505050565b6000606082019050610a04600083018661090b565b610a11602083018561090b565b610a1e604083018461072e565b949350505050565b610a2f81610978565b8114610a3a57600080fd5b50565b600081519050610a4c81610a26565b92915050565b600060208284031215610a6857610a67610629565b5b6000610a7684828501610a3d565b91505092915050565b7f4e487b7100000000000000000000000000000000000000000000000000000000600052602260045260246000fd5b60006002820490506001821680610ac657607f821691505b602082108103610ad957610ad8610a7f565b5b50919050565b60008190508160005260206000209050919050565b60008154610b0181610aae565b610b0b818661091a565b94506001821660008114610b265760018114610b3857610b6b565b60ff1983168652602086019350610b6b565b610b4185610adf565b60005b83811015610b6357815481890152600182019150602081019050610b44565b808801955050505b50505092915050565b600060a082019050610b89600083018861072e565b610b96602083018761072e565b610ba3604083018661090b565b8181036060830152610bb58185610af4565b9050610bc46080830184610984565b9695505050505050565b600060c082019050610be3600083018a61072e565b610bf0602083018961090b565b8181036040830152610c0381878961094b565b9050610c12606083018661072e565b610c1f608083018561072e565b610c2c60a083018461072e565b9897505050505050505056fea26469706673582212200306314ed92d981cb0f182cf4f7077035662d64c55da5d3e4cb4bc6e2d148bc464736f6c634300080d0033",
  "linkReferences": {},
  "deployedLinkReferences": {}
}