{
  "_format": "hh-sol-artifact-1",
  "contractName": "Mine2Mine",
  "sourceName": "contracts/Mine2Mine.sol",
  "abi": [
    {
      "anonymous": false,
      "inputs": [
        {
          "indexed": false,
          "internalType": "uint256",
          "name": "taskId",
          "type": "uint256"
        },
        {
          "indexed": false,
          "internalType": "uint256",
          "name": "submissionId",
          "type": "uint256"
        },
        {
          "indexed": false,
          "internalType": "address",
          "name": "creator",
          "type": "address"
        },
        {
          "indexed": false,
          "internalType": "string",
          "name": "ipfsHash",
          "type": "string"
        }
      ],
      "name": "SubmissionCreated",
      "type": "event"
    },
    {
      "anonymous": false,
      "inputs": [
        {
          "indexed": false,
          "internalType": "uint256",
          "name": "taskId",
          "type": "uint256"
        },
        {
          "indexed": false,
          "internalType": "address",
          "name": "creator",
          "type": "address"
        },
        {
          "indexed": false,
          "internalType": "string",
          "name": "text",
          "type": "string"
        },
        {
          "indexed": false,
          "internalType": "uint256",
          "name": "bid",
          "type": "uint256"
        },
        {
          "indexed": false,
          "internalType": "uint256",
          "name": "expiresAt",
          "type": "uint256"
        },
        {
          "indexed": false,
          "internalType": "uint256",
          "name": "quantity",
          "type": "uint256"
        }
      ],
      "name": "TaskCreated",
      "type": "event"
    },
    {
      "inputs": [
        {
          "internalType": "uint256",
          "name": "taskId",
          "type": "uint256"
        },
        {
          "internalType": "string",
          "name": "ipfsHash",
          "type": "string"
        }
      ],
      "name": "createSubmission",
      "outputs": [
        {
          "internalType": "uint256",
          "name": "",
          "type": "uint256"
        }
      ],
      "stateMutability": "nonpayable",
      "type": "function"
    },
    {
      "inputs": [
        {
          "internalType": "string",
          "name": "text",
          "type": "string"
        },
        {
          "internalType": "uint256",
          "name": "bid",
          "type": "uint256"
        },
        {
          "internalType": "uint256",
          "name": "expiresAt",
          "type": "uint256"
        },
        {
          "internalType": "uint256",
          "name": "quantity",
          "type": "uint256"
        }
      ],
      "name": "createTask",
      "outputs": [
        {
          "internalType": "uint256",
          "name": "",
          "type": "uint256"
        }
      ],
      "stateMutability": "nonpayable",
      "type": "function"
    }
  ],
  "bytecode": "0x6080604052732791bca1f2de4661ed88a30c99a7a9449aa84174600260006101000a81548173ffffffffffffffffffffffffffffffffffffffff021916908373ffffffffffffffffffffffffffffffffffffffff16021790555034801561006557600080fd5b50610963806100756000396000f3fe608060405234801561001057600080fd5b50600436106100365760003560e01c8063a5e99c4e1461003b578063fabbe4dd1461006b575b600080fd5b6100556004803603810190610050919061050f565b61009b565b604051610062919061057e565b60405180910390f35b61008560048036038101906100809190610599565b61029e565b604051610092919061057e565b60405180910390f35b6000806001600086815260200190815260200160002060050154116100bf57600080fd5b6000600160008681526020019081526020016000209050600260009054906101000a900473ffffffffffffffffffffffffffffffffffffffff1673ffffffffffffffffffffffffffffffffffffffff166323b872dd8260000160009054906101000a900473ffffffffffffffffffffffffffffffffffffffff163384600201546040518463ffffffff1660e01b815260040161015d93929190610662565b6020604051808303816000875af115801561017c573d6000803e3d6000fd5b505050506040513d601f19601f820116820180604052508101906101a091906106d1565b5060018160060160008282546101b6919061072d565b9250508190555060008160060154905060008260070160008381526020019081526020016000209050338160000160006101000a81548173ffffffffffffffffffffffffffffffffffffffff021916908373ffffffffffffffffffffffffffffffffffffffff16021790555085858260010191906102359291906103c7565b50600183600501600082825461024b9190610783565b925050819055507f9d9ec53e54f6385ec09428208c029bd27eb96263fc7b5da62db98ecc7d3f015c8783338989604051610289959493929190610815565b60405180910390a18193505050509392505050565b60008084116102ac57600080fd5b4283116102b857600080fd5b600082116102c557600080fd5b60016000808282546102d7919061072d565b925050819055506000805490506000600160008381526020019081526020016000209050338160000160006101000a81548173ffffffffffffffffffffffffffffffffffffffff021916908373ffffffffffffffffffffffffffffffffffffffff16021790555087878260010191906103519291906103c7565b508581600201819055508481600301819055508381600401819055508381600501819055507f8623ed2339baafec131f38526e1e8c85a4e636b9698a20b0c87705450c92739082338a8a8a8a8a6040516103b19796959493929190610863565b60405180910390a1819250505095945050505050565b8280546103d3906108fc565b90600052602060002090601f0160209004810192826103f5576000855561043c565b82601f1061040e57803560ff191683800117855561043c565b8280016001018555821561043c579182015b8281111561043b578235825591602001919060010190610420565b5b509050610449919061044d565b5090565b5b8082111561046657600081600090555060010161044e565b5090565b600080fd5b600080fd5b6000819050919050565b61048781610474565b811461049257600080fd5b50565b6000813590506104a48161047e565b92915050565b600080fd5b600080fd5b600080fd5b60008083601f8401126104cf576104ce6104aa565b5b8235905067ffffffffffffffff8111156104ec576104eb6104af565b5b602083019150836001820283011115610508576105076104b4565b5b9250929050565b6000806000604084860312156105285761052761046a565b5b600061053686828701610495565b935050602084013567ffffffffffffffff8111156105575761055661046f565b5b610563868287016104b9565b92509250509250925092565b61057881610474565b82525050565b6000602082019050610593600083018461056f565b92915050565b6000806000806000608086880312156105b5576105b461046a565b5b600086013567ffffffffffffffff8111156105d3576105d261046f565b5b6105df888289016104b9565b955095505060206105f288828901610495565b935050604061060388828901610495565b925050606061061488828901610495565b9150509295509295909350565b600073ffffffffffffffffffffffffffffffffffffffff82169050919050565b600061064c82610621565b9050919050565b61065c81610641565b82525050565b60006060820190506106776000830186610653565b6106846020830185610653565b610691604083018461056f565b949350505050565b60008115159050919050565b6106ae81610699565b81146106b957600080fd5b50565b6000815190506106cb816106a5565b92915050565b6000602082840312156106e7576106e661046a565b5b60006106f5848285016106bc565b91505092915050565b7f4e487b7100000000000000000000000000000000000000000000000000000000600052601160045260246000fd5b600061073882610474565b915061074383610474565b9250827fffffffffffffffffffffffffffffffffffffffffffffffffffffffffffffffff03821115610778576107776106fe565b5b828201905092915050565b600061078e82610474565b915061079983610474565b9250828210156107ac576107ab6106fe565b5b828203905092915050565b600082825260208201905092915050565b82818337600083830152505050565b6000601f19601f8301169050919050565b60006107f483856107b7565b93506108018385846107c8565b61080a836107d7565b840190509392505050565b600060808201905061082a600083018861056f565b610837602083018761056f565b6108446040830186610653565b81810360608301526108578184866107e8565b90509695505050505050565b600060c082019050610878600083018a61056f565b6108856020830189610653565b81810360408301526108988187896107e8565b90506108a7606083018661056f565b6108b4608083018561056f565b6108c160a083018461056f565b98975050505050505050565b7f4e487b7100000000000000000000000000000000000000000000000000000000600052602260045260246000fd5b6000600282049050600182168061091457607f821691505b602082108103610927576109266108cd565b5b5091905056fea26469706673582212204ab241cd1905654240775eec2b9f7a0805298e745045df0eca1e08be092fb46964736f6c634300080d0033",
  "linkReferences": {},
  "deployedLinkReferences": {}
}